{
  "address": "0x79089d5B521030852EdEEeF47A3cD726F3d59e7b",
  "abi": [
    {
      "inputs": [],
      "stateMutability": "nonpayable",
      "type": "constructor"
    },
    {
      "inputs": [],
      "name": "MINIMUM_CONTRIBUTION",
      "outputs": [
        {
          "internalType": "uint64",
          "name": "",
          "type": "uint64"
        }
      ],
      "stateMutability": "view",
      "type": "function"
    },
    {
      "inputs": [
        {
          "internalType": "address",
          "name": "contributorAddress",
          "type": "address"
        }
      ],
      "name": "canPass",
      "outputs": [
        {
          "internalType": "bool",
          "name": "",
          "type": "bool"
        }
      ],
      "stateMutability": "view",
      "type": "function"
    },
    {
      "inputs": [
        {
          "internalType": "address",
          "name": "",
          "type": "address"
        }
      ],
      "name": "contributors",
      "outputs": [
        {
          "internalType": "uint256",
          "name": "",
          "type": "uint256"
        }
      ],
      "stateMutability": "view",
      "type": "function"
    },
    {
      "inputs": [],
      "name": "widthdraw",
      "outputs": [],
      "stateMutability": "nonpayable",
      "type": "function"
    },
    {
      "stateMutability": "payable",
      "type": "receive"
    }
  ],
  "transactionHash": "0x40888cc1431a69c42d3540ad27b3fae51f196e19e0636d21f1007280d76766b0",
  "args": [],
  "numDeployments": 1,
  "solcInputHash": "e7c6ec8c267b7d39cc160c5d594aeae0",
  "bytecode": "0x60a060405234801561001057600080fd5b503373ffffffffffffffffffffffffffffffffffffffff1660808173ffffffffffffffffffffffffffffffffffffffff1681525050608051610489610060600039600061020201526104896000f3fe6080604052600436106100435760003560e01c80631f6d4942146100b8578063248c11f5146100f557806352b50a2a146101325780638d0bba0314610149576100b3565b366100b35767016345785d8a0000341461005c57600080fd5b346000803373ffffffffffffffffffffffffffffffffffffffff1673ffffffffffffffffffffffffffffffffffffffff16815260200190815260200160002060008282546100aa91906102cf565b92505081905550005b600080fd5b3480156100c457600080fd5b506100df60048036038101906100da9190610388565b610174565b6040516100ec91906103c4565b60405180910390f35b34801561010157600080fd5b5061011c60048036038101906101179190610388565b61018c565b60405161012991906103fa565b60405180910390f35b34801561013e57600080fd5b506101476101e9565b005b34801561015557600080fd5b5061015e61028a565b60405161016b9190610438565b60405180910390f35b60006020528060005260406000206000915090505481565b600067016345785d8a000067ffffffffffffffff166000808473ffffffffffffffffffffffffffffffffffffffff1673ffffffffffffffffffffffffffffffffffffffff1681526020019081526020016000205410159050919050565b3373ffffffffffffffffffffffffffffffffffffffff167f000000000000000000000000000000000000000000000000000000000000000073ffffffffffffffffffffffffffffffffffffffff161461024157600080fd5b3373ffffffffffffffffffffffffffffffffffffffff166108fc479081150290604051600060405180830381858888f19350505050158015610287573d6000803e3d6000fd5b50565b67016345785d8a000081565b6000819050919050565b7f4e487b7100000000000000000000000000000000000000000000000000000000600052601160045260246000fd5b60006102da82610296565b91506102e583610296565b9250827fffffffffffffffffffffffffffffffffffffffffffffffffffffffffffffffff0382111561031a576103196102a0565b5b828201905092915050565b600080fd5b600073ffffffffffffffffffffffffffffffffffffffff82169050919050565b60006103558261032a565b9050919050565b6103658161034a565b811461037057600080fd5b50565b6000813590506103828161035c565b92915050565b60006020828403121561039e5761039d610325565b5b60006103ac84828501610373565b91505092915050565b6103be81610296565b82525050565b60006020820190506103d960008301846103b5565b92915050565b60008115159050919050565b6103f4816103df565b82525050565b600060208201905061040f60008301846103eb565b92915050565b600067ffffffffffffffff82169050919050565b61043281610415565b82525050565b600060208201905061044d6000830184610429565b9291505056fea2646970667358221220dc9d65280397e3994af4549c0e051e44a157a6cab41c7fa0ee762c55cf20a50864736f6c63430008090033",
  "devdoc": {
    "kind": "dev",
    "methods": {},
    "version": 1
  },
  "userdoc": {
    "kind": "user",
    "methods": {},
    "version": 1
  },
  "storageLayout": {
    "storage": [
      {
        "astId": 6,
        "contract": "contracts/GreedyRobot.sol:GreedyRobot",
        "label": "contributors",
        "offset": 0,
        "slot": "0",
        "type": "t_mapping(t_address,t_uint256)"
      }
    ],
    "types": {
      "t_address": {
        "encoding": "inplace",
        "label": "address",
        "numberOfBytes": "20"
      },
      "t_mapping(t_address,t_uint256)": {
        "encoding": "mapping",
        "key": "t_address",
        "label": "mapping(address => uint256)",
        "numberOfBytes": "32",
        "value": "t_uint256"
      },
      "t_uint256": {
        "encoding": "inplace",
        "label": "uint256",
        "numberOfBytes": "32"
      }
    }
  }
}