{
  "address": "0xf75A5d4375568357EfD069f690b96b47d69Ed1Cd",
  "abi": [
    {
      "inputs": [],
      "name": "FLAG",
      "outputs": [
        {
          "internalType": "string",
          "name": "",
          "type": "string"
        }
      ],
      "stateMutability": "view",
      "type": "function"
    }
  ],
  "transactionHash": "0x7cd3b153e0966ac91bb5c49f502b315e1d78c53a2ee9846c3e7bc11211b4c593",
  "args": [],
  "numDeployments": 1,
  "solcInputHash": "e7c6ec8c267b7d39cc160c5d594aeae0",
  "bytecode": "0x608060405234801561001057600080fd5b5061019f806100206000396000f3fe608060405234801561001057600080fd5b506004361061002b5760003560e01c8063d246460714610030575b600080fd5b61003861004e565b6040516100459190610103565b60405180910390f35b6040518060800160405280604481526020016101266044913981565b600081519050919050565b600082825260208201905092915050565b60005b838110156100a4578082015181840152602081019050610089565b838111156100b3576000848401525b50505050565b6000601f19601f8301169050919050565b60006100d58261006a565b6100df8185610075565b93506100ef818560208601610086565b6100f8816100b9565b840191505092915050565b6000602082019050818103600083015261011d81846100ca565b90509291505056fe7365637572696e6574737b5930755f496e74337234637433645f576974685f5468655f436f6e74723463745f5573696e365f5468655f576562336a5f4c3162723472797da26469706673582212209cc2893dd6f916a3ff39b6a24f6a8fc49f49a8eafd1908f91c9b65656f11a28e64736f6c63430008090033",
  "devdoc": {
    "kind": "dev",
    "methods": {},
    "version": 1
  },
  "userdoc": {
    "kind": "user",
    "methods": {},
    "version": 1
  },
  "storageLayout": {
    "storage": [],
    "types": null
  }
}